{
  "_format": "hh-sol-artifact-1",
  "contractName": "InstituteRegistration",
  "sourceName": "contracts/InstituteRegistration.sol",
  "abi": [
    {
      "inputs": [],
      "name": "getInstitutes",
      "outputs": [
        {
          "internalType": "address[]",
          "name": "",
          "type": "address[]"
        }
      ],
      "stateMutability": "view",
      "type": "function"
    },
    {
      "inputs": [
        {
          "internalType": "uint256",
          "name": "",
          "type": "uint256"
        }
      ],
      "name": "instituteList",
      "outputs": [
        {
          "internalType": "address",
          "name": "",
          "type": "address"
        }
      ],
      "stateMutability": "view",
      "type": "function"
    },
    {
      "inputs": [
        {
          "internalType": "address",
          "name": "",
          "type": "address"
        }
      ],
      "name": "institutes",
      "outputs": [
        {
          "internalType": "address",
          "name": "instituteAddress",
          "type": "address"
        },
        {
          "internalType": "string",
          "name": "name",
          "type": "string"
        },
        {
          "internalType": "bool",
          "name": "isRegistered",
          "type": "bool"
        }
      ],
      "stateMutability": "view",
      "type": "function"
    },
    {
      "inputs": [
        {
          "internalType": "string",
          "name": "name",
          "type": "string"
        }
      ],
      "name": "registerInstitute",
      "outputs": [],
      "stateMutability": "nonpayable",
      "type": "function"
    }
  ],
  "bytecode": "0x608060405234801561001057600080fd5b50610c79806100206000396000f3fe608060405234801561001057600080fd5b506004361061004c5760003560e01c8063153efe47146100515780637e0e46b71461008157806388f14e11146100b3578063de206774146100cf575b600080fd5b61006b600480360381019061006691906104d0565b6100ed565b604051610078919061053e565b60405180910390f35b61009b60048036038101906100969190610585565b61012c565b6040516100aa9392919061065d565b60405180910390f35b6100cd60048036038101906100c891906107d0565b61020b565b005b6100d76103f8565b6040516100e491906108d7565b60405180910390f35b600181815481106100fd57600080fd5b906000526020600020016000915054906101000a900473ffffffffffffffffffffffffffffffffffffffff1681565b60006020528060005260406000206000915090508060000160009054906101000a900473ffffffffffffffffffffffffffffffffffffffff169080600101805461017590610928565b80601f01602080910402602001604051908101604052809291908181526020018280546101a190610928565b80156101ee5780601f106101c3576101008083540402835291602001916101ee565b820191906000526020600020905b8154815290600101906020018083116101d157829003601f168201915b5050505050908060020160009054906101000a900460ff16905083565b600015156000803373ffffffffffffffffffffffffffffffffffffffff1673ffffffffffffffffffffffffffffffffffffffff16815260200190815260200160002060020160009054906101000a900460ff161515146102a0576040517f08c379a0000000000000000000000000000000000000000000000000000000008152600401610297906109a5565b60405180910390fd5b60405180606001604052803373ffffffffffffffffffffffffffffffffffffffff168152602001828152602001600115158152506000803373ffffffffffffffffffffffffffffffffffffffff1673ffffffffffffffffffffffffffffffffffffffff16815260200190815260200160002060008201518160000160006101000a81548173ffffffffffffffffffffffffffffffffffffffff021916908373ffffffffffffffffffffffffffffffffffffffff160217905550602082015181600101908161036e9190610b71565b5060408201518160020160006101000a81548160ff0219169083151502179055509050506001339080600181540180825580915050600190039060005260206000200160009091909190916101000a81548173ffffffffffffffffffffffffffffffffffffffff021916908373ffffffffffffffffffffffffffffffffffffffff16021790555050565b6060600180548060200260200160405190810160405280929190818152602001828054801561047c57602002820191906000526020600020905b8160009054906101000a900473ffffffffffffffffffffffffffffffffffffffff1673ffffffffffffffffffffffffffffffffffffffff1681526020019060010190808311610432575b5050505050905090565b6000604051905090565b600080fd5b600080fd5b6000819050919050565b6104ad8161049a565b81146104b857600080fd5b50565b6000813590506104ca816104a4565b92915050565b6000602082840312156104e6576104e5610490565b5b60006104f4848285016104bb565b91505092915050565b600073ffffffffffffffffffffffffffffffffffffffff82169050919050565b6000610528826104fd565b9050919050565b6105388161051d565b82525050565b6000602082019050610553600083018461052f565b92915050565b6105628161051d565b811461056d57600080fd5b50565b60008135905061057f81610559565b92915050565b60006020828403121561059b5761059a610490565b5b60006105a984828501610570565b91505092915050565b600081519050919050565b600082825260208201905092915050565b60005b838110156105ec5780820151818401526020810190506105d1565b60008484015250505050565b6000601f19601f8301169050919050565b6000610614826105b2565b61061e81856105bd565b935061062e8185602086016105ce565b610637816105f8565b840191505092915050565b60008115159050919050565b61065781610642565b82525050565b6000606082019050610672600083018661052f565b81810360208301526106848185610609565b9050610693604083018461064e565b949350505050565b600080fd5b600080fd5b7f4e487b7100000000000000000000000000000000000000000000000000000000600052604160045260246000fd5b6106dd826105f8565b810181811067ffffffffffffffff821117156106fc576106fb6106a5565b5b80604052505050565b600061070f610486565b905061071b82826106d4565b919050565b600067ffffffffffffffff82111561073b5761073a6106a5565b5b610744826105f8565b9050602081019050919050565b82818337600083830152505050565b600061077361076e84610720565b610705565b90508281526020810184848401111561078f5761078e6106a0565b5b61079a848285610751565b509392505050565b600082601f8301126107b7576107b661069b565b5b81356107c7848260208601610760565b91505092915050565b6000602082840312156107e6576107e5610490565b5b600082013567ffffffffffffffff81111561080457610803610495565b5b610810848285016107a2565b91505092915050565b600081519050919050565b600082825260208201905092915050565b6000819050602082019050919050565b61084e8161051d565b82525050565b60006108608383610845565b60208301905092915050565b6000602082019050919050565b600061088482610819565b61088e8185610824565b935061089983610835565b8060005b838110156108ca5781516108b18882610854565b97506108bc8361086c565b92505060018101905061089d565b5085935050505092915050565b600060208201905081810360008301526108f18184610879565b905092915050565b7f4e487b7100000000000000000000000000000000000000000000000000000000600052602260045260246000fd5b6000600282049050600182168061094057607f821691505b602082108103610953576109526108f9565b5b50919050565b7f496e7374697475746520616c726561647920726567697374657265642e000000600082015250565b600061098f601d836105bd565b915061099a82610959565b602082019050919050565b600060208201905081810360008301526109be81610982565b9050919050565b60008190508160005260206000209050919050565b60006020601f8301049050919050565b600082821b905092915050565b600060088302610a277fffffffffffffffffffffffffffffffffffffffffffffffffffffffffffffffff826109ea565b610a3186836109ea565b95508019841693508086168417925050509392505050565b6000819050919050565b6000610a6e610a69610a648461049a565b610a49565b61049a565b9050919050565b6000819050919050565b610a8883610a53565b610a9c610a9482610a75565b8484546109f7565b825550505050565b600090565b610ab1610aa4565b610abc818484610a7f565b505050565b5b81811015610ae057610ad5600082610aa9565b600181019050610ac2565b5050565b601f821115610b2557610af6816109c5565b610aff846109da565b81016020851015610b0e578190505b610b22610b1a856109da565b830182610ac1565b50505b505050565b600082821c905092915050565b6000610b4860001984600802610b2a565b1980831691505092915050565b6000610b618383610b37565b9150826002028217905092915050565b610b7a826105b2565b67ffffffffffffffff811115610b9357610b926106a5565b5b610b9d8254610928565b610ba8828285610ae4565b600060209050601f831160018114610bdb5760008415610bc9578287015190505b610bd38582610b55565b865550610c3b565b601f198416610be9866109c5565b60005b82811015610c1157848901518255600182019150602085019450602081019050610bec565b86831015610c2e5784890151610c2a601f891682610b37565b8355505b6001600288020188555050505b50505050505056fea2646970667358221220b29657112fbad6e9ceeea079defb9e2bf344ce5193828f5030a4cce039987dc764736f6c63430008180033",
  "linkReferences": {},
  "deployedLinkReferences": {}
}