{
  "_format": "hh-sol-artifact-1",
  "contractName": "CarbonCreditsTrading",
  "sourceName": "contracts/CarbonCreditsTrading.sol",
  "abi": [
    {
      "anonymous": false,
      "inputs": [
        {
          "indexed": false,
          "internalType": "uint256",
          "name": "id",
          "type": "uint256"
        },
        {
          "indexed": false,
          "internalType": "uint256",
          "name": "buyOrderId",
          "type": "uint256"
        },
        {
          "indexed": false,
          "internalType": "uint256",
          "name": "sellOrderId",
          "type": "uint256"
        },
        {
          "indexed": false,
          "internalType": "address",
          "name": "buyer",
          "type": "address"
        },
        {
          "indexed": false,
          "internalType": "address",
          "name": "seller",
          "type": "address"
        },
        {
          "indexed": false,
          "internalType": "uint256",
          "name": "quantity",
          "type": "uint256"
        },
        {
          "indexed": false,
          "internalType": "uint256",
          "name": "pricePerCredit",
          "type": "uint256"
        }
      ],
      "name": "OrderMatched",
      "type": "event"
    },
    {
      "anonymous": false,
      "inputs": [
        {
          "indexed": false,
          "internalType": "uint256",
          "name": "id",
          "type": "uint256"
        },
        {
          "indexed": false,
          "internalType": "address",
          "name": "institute",
          "type": "address"
        },
        {
          "indexed": false,
          "internalType": "uint256",
          "name": "quantity",
          "type": "uint256"
        },
        {
          "indexed": false,
          "internalType": "uint256",
          "name": "pricePerCredit",
          "type": "uint256"
        },
        {
          "indexed": false,
          "internalType": "bool",
          "name": "isBuyOrder",
          "type": "bool"
        }
      ],
      "name": "OrderPlaced",
      "type": "event"
    },
    {
      "inputs": [],
      "name": "nextOrderId",
      "outputs": [
        {
          "internalType": "uint256",
          "name": "",
          "type": "uint256"
        }
      ],
      "stateMutability": "view",
      "type": "function"
    },
    {
      "inputs": [],
      "name": "nextTradeId",
      "outputs": [
        {
          "internalType": "uint256",
          "name": "",
          "type": "uint256"
        }
      ],
      "stateMutability": "view",
      "type": "function"
    },
    {
      "inputs": [
        {
          "internalType": "uint256",
          "name": "",
          "type": "uint256"
        }
      ],
      "name": "orders",
      "outputs": [
        {
          "internalType": "uint256",
          "name": "id",
          "type": "uint256"
        },
        {
          "internalType": "address",
          "name": "institute",
          "type": "address"
        },
        {
          "internalType": "uint256",
          "name": "quantity",
          "type": "uint256"
        },
        {
          "internalType": "uint256",
          "name": "pricePerCredit",
          "type": "uint256"
        },
        {
          "internalType": "bool",
          "name": "isBuyOrder",
          "type": "bool"
        },
        {
          "internalType": "bool",
          "name": "isFulfilled",
          "type": "bool"
        }
      ],
      "stateMutability": "view",
      "type": "function"
    },
    {
      "inputs": [
        {
          "internalType": "uint256",
          "name": "quantity",
          "type": "uint256"
        },
        {
          "internalType": "uint256",
          "name": "pricePerCredit",
          "type": "uint256"
        },
        {
          "internalType": "bool",
          "name": "isBuyOrder",
          "type": "bool"
        }
      ],
      "name": "placeOrder",
      "outputs": [],
      "stateMutability": "nonpayable",
      "type": "function"
    },
    {
      "inputs": [
        {
          "internalType": "uint256",
          "name": "",
          "type": "uint256"
        }
      ],
      "name": "trades",
      "outputs": [
        {
          "internalType": "uint256",
          "name": "id",
          "type": "uint256"
        },
        {
          "internalType": "uint256",
          "name": "buyOrderId",
          "type": "uint256"
        },
        {
          "internalType": "uint256",
          "name": "sellOrderId",
          "type": "uint256"
        },
        {
          "internalType": "address",
          "name": "buyer",
          "type": "address"
        },
        {
          "internalType": "address",
          "name": "seller",
          "type": "address"
        },
        {
          "internalType": "uint256",
          "name": "quantity",
          "type": "uint256"
        },
        {
          "internalType": "uint256",
          "name": "pricePerCredit",
          "type": "uint256"
        }
      ],
      "stateMutability": "view",
      "type": "function"
    }
  ],
  "bytecode": "0x608060405234801561001057600080fd5b50610d2d806100206000396000f3fe608060405234801561001057600080fd5b50600436106100575760003560e01c80631e6c598e1461005c5780632a58b33014610092578063813ad083146100b0578063a85c38ef146100ce578063bd2d447d14610103575b600080fd5b610076600480360381019061007191906109fc565b61011f565b6040516100899796959493929190610a79565b60405180910390f35b61009a6101b1565b6040516100a79190610ae8565b60405180910390f35b6100b86101b7565b6040516100c59190610ae8565b60405180910390f35b6100e860048036038101906100e391906109fc565b6101bd565b6040516100fa96959493929190610b1e565b60405180910390f35b61011d60048036038101906101189190610bab565b610243565b005b6003818154811061012f57600080fd5b90600052602060002090600702016000915090508060000154908060010154908060020154908060030160009054906101000a900473ffffffffffffffffffffffffffffffffffffffff16908060040160009054906101000a900473ffffffffffffffffffffffffffffffffffffffff16908060050154908060060154905087565b60005481565b60015481565b600281815481106101cd57600080fd5b90600052602060002090600502016000915090508060000154908060010160009054906101000a900473ffffffffffffffffffffffffffffffffffffffff16908060020154908060030154908060040160009054906101000a900460ff16908060040160019054906101000a900460ff16905086565b60006040518060c0016040528060005481526020013373ffffffffffffffffffffffffffffffffffffffff168152602001858152602001848152602001831515815260200160001515815250905060028190806001815401808255809150506001900390600052602060002090600502016000909190919091506000820151816000015560208201518160010160006101000a81548173ffffffffffffffffffffffffffffffffffffffff021916908373ffffffffffffffffffffffffffffffffffffffff160217905550604082015181600201556060820151816003015560808201518160040160006101000a81548160ff02191690831515021790555060a08201518160040160016101000a81548160ff02191690831515021790555050507f1ad1a5ae4ffda7ac4728a3f999d312ee8c3bf93f8f9bec6ea55609ec2980c0d76000543386868660405161039d959493929190610bfe565b60405180910390a181156103b9576103b4816103e0565b6103c3565b6103c2816106d1565b5b6000808154809291906103d590610c80565b919050555050505050565b60005b6002805490508110156106cd5760006002828154811061040657610405610cc8565b5b906000526020600020906005020190508060040160009054906101000a900460ff1615801561044457508060040160019054906101000a900460ff16155b8015610457575082604001518160020154145b801561046b57508260600151816003015411155b156106bf5760036040518060e0016040528060015481526020018560000151815260200183600001548152602001856020015173ffffffffffffffffffffffffffffffffffffffff1681526020018360010160009054906101000a900473ffffffffffffffffffffffffffffffffffffffff1673ffffffffffffffffffffffffffffffffffffffff168152602001856040015181526020018360030154815250908060018154018082558091505060019003906000526020600020906007020160009091909190915060008201518160000155602082015181600101556040820151816002015560608201518160030160006101000a81548173ffffffffffffffffffffffffffffffffffffffff021916908373ffffffffffffffffffffffffffffffffffffffff16021790555060808201518160040160006101000a81548173ffffffffffffffffffffffffffffffffffffffff021916908373ffffffffffffffffffffffffffffffffffffffff16021790555060a0820151816005015560c0820151816006015550507f944cb2286e33a049d31dd076e8209f9381213dd2c02d56ec71b7702d195455b76001548460000151836000015486602001518560010160009054906101000a900473ffffffffffffffffffffffffffffffffffffffff168860400151876003015460405161066b9796959493929190610a79565b60405180910390a160018160040160016101000a81548160ff02191690831515021790555060018360a0019015159081151581525050600160008154809291906106b490610c80565b9190505550506106cd565b5080806001019150506103e3565b5050565b60005b6002805490508110156109bd576000600282815481106106f7576106f6610cc8565b5b906000526020600020906005020190508060040160009054906101000a900460ff16801561073457508060040160019054906101000a900460ff16155b8015610747575082604001518160020154145b801561075b57508260600151816003015410155b156109af5760036040518060e00160405280600154815260200183600001548152602001856000015181526020018360010160009054906101000a900473ffffffffffffffffffffffffffffffffffffffff1673ffffffffffffffffffffffffffffffffffffffff168152602001856020015173ffffffffffffffffffffffffffffffffffffffff168152602001856040015181526020018360030154815250908060018154018082558091505060019003906000526020600020906007020160009091909190915060008201518160000155602082015181600101556040820151816002015560608201518160030160006101000a81548173ffffffffffffffffffffffffffffffffffffffff021916908373ffffffffffffffffffffffffffffffffffffffff16021790555060808201518160040160006101000a81548173ffffffffffffffffffffffffffffffffffffffff021916908373ffffffffffffffffffffffffffffffffffffffff16021790555060a0820151816005015560c0820151816006015550507f944cb2286e33a049d31dd076e8209f9381213dd2c02d56ec71b7702d195455b7600154826000015485600001518460010160009054906101000a900473ffffffffffffffffffffffffffffffffffffffff1687602001518860400151876003015460405161095b9796959493929190610a79565b60405180910390a160018160040160016101000a81548160ff02191690831515021790555060018360a0019015159081151581525050600160008154809291906109a490610c80565b9190505550506109bd565b5080806001019150506106d4565b5050565b600080fd5b6000819050919050565b6109d9816109c6565b81146109e457600080fd5b50565b6000813590506109f6816109d0565b92915050565b600060208284031215610a1257610a116109c1565b5b6000610a20848285016109e7565b91505092915050565b610a32816109c6565b82525050565b600073ffffffffffffffffffffffffffffffffffffffff82169050919050565b6000610a6382610a38565b9050919050565b610a7381610a58565b82525050565b600060e082019050610a8e600083018a610a29565b610a9b6020830189610a29565b610aa86040830188610a29565b610ab56060830187610a6a565b610ac26080830186610a6a565b610acf60a0830185610a29565b610adc60c0830184610a29565b98975050505050505050565b6000602082019050610afd6000830184610a29565b92915050565b60008115159050919050565b610b1881610b03565b82525050565b600060c082019050610b336000830189610a29565b610b406020830188610a6a565b610b4d6040830187610a29565b610b5a6060830186610a29565b610b676080830185610b0f565b610b7460a0830184610b0f565b979650505050505050565b610b8881610b03565b8114610b9357600080fd5b50565b600081359050610ba581610b7f565b92915050565b600080600060608486031215610bc457610bc36109c1565b5b6000610bd2868287016109e7565b9350506020610be3868287016109e7565b9250506040610bf486828701610b96565b9150509250925092565b600060a082019050610c136000830188610a29565b610c206020830187610a6a565b610c2d6040830186610a29565b610c3a6060830185610a29565b610c476080830184610b0f565b9695505050505050565b7f4e487b7100000000000000000000000000000000000000000000000000000000600052601160045260246000fd5b6000610c8b826109c6565b91507fffffffffffffffffffffffffffffffffffffffffffffffffffffffffffffffff8203610cbd57610cbc610c51565b5b600182019050919050565b7f4e487b7100000000000000000000000000000000000000000000000000000000600052603260045260246000fdfea2646970667358221220f838b4e88a4130918722b669a945e7c49ab2f573055bfc0735f3b6c4926d41e164736f6c63430008180033",
  "linkReferences": {},
  "deployedLinkReferences": {}
}